:1000000099C10000B8C10000B6C10000B4C1000031
:10001000B2C10000B0C10000AEC10000ACC1000020
:10002000AAC10000A8C10000A6C10000A4C1000030
:10003000A2C10000A0C100009EC100009CC1000040
:100040009AC100000C942C140C9459140C9486142E
:100050000C94FF1390C100008EC100008CC1000001
:100060008AC1000088C1000086C1000084C1000070
:1000700082C1000080C100007EC100007CC1000080
:100080000C94E0140C940D150C943A150C94B314C4
:1000900011C7000070C100006EC10000A1C30000C4
:1000A0006AC1000068C100000C9494150C94C1153D
:1000B0000C94EE150C9467155EC100000C94481664
:1000C0000C9475160C94A2160C941B1654C10000C7
:1000D00052C1000050C100004EC100004CC10000E0
:1000E0004AC1000048C1000046C1000044C10000F0
:1000F00042C1000040C100003EC100003CC1000000
:100100003AC1000038C1000036C1000034C100000F
:1001100032C1000030C100002EC100002CC100001F
:100120002AC1000028C1000026C1000024C100002F
:1001300022C100009B049705970597059705970531
:100140009705970512049705970597059705970555
:100150009705970512049705970597059705970545
:100160009705970537049705970597059705970510
:10017000970597059B04970597059705970597059C
:1001800097059705370497059705970597059705F0
:10019000970597059B04970597059705970597057C
:1001A00097059705280597059705970597059705DE
:1001B00097059705A0049705970597059705970557
:1001C000970597059B04970597059705970597054C
:1001D00097059705C904970597059705970597050E
:1001E00097059705010597059705970597059705C5
:1001F000970597055C05970597059705970597055A
:10020000970597055C059705970597059705970549
:10021000970597055C059705970597059705970539
:10022000970597055C059705970597059705970529
:10023000970597056605970597059705970597050F
:10024000970597058B0597059705970597059705DA
:1002500097059705660597059705970597059705EF
:10026000970597058B0597059705970597059705BA
:10027000970597057F0597059705970597059705B6
:1002800097059705310597059705970597059705F4
:1002900097059705310597059705970597059705E4
:1002A00097059705350597059705970597059705D0
:1002B00097059705500597059705970597059705A5
:1002C000970597058B05511B301C301C301C301CCA
:1002D000301C301C301C301C301C141C301C301CDA
:1002E000301C301C301C301C931B301C301C301C4C
:1002F000301C3B1B301C301C301C301C301C301C94
:10030000301C301C301C511B301C301C301C301C6D
:10031000301C301C301C301C301C141C301C301C99
:10032000301C301C301C301C931B301C301C301C0B
:10033000301C3B1B11241FBECFEFD1E8DEBFCDBF69
:1003400000E00CBF15E0A0E0B2E0E6EDF4E400E070
:100350000BBF02C007900D92A83BB107D9F72DE063
:10036000A8EBB5E001C01D92AC38B207E1F70E94DE
:10037000821C0C94692244CE0E94A7132091BC05D4
:100380002223D9F04091810D30E02091BC05642FEB
:10039000732F0E94181DFB018FEF9FEF642F732FA7
:1003A0000E94181D30E0629FC001639F900D729FF4
:1003B000900D11248E0F9F1F08956091810D70E0A4
:1003C0000E94181DCB0108950E94AC130E94D01307
:1003D0001092B8051092B9051092BA051092BB059B
:1003E0001092BE051092BD050C94DD130E94BA1345
:1003F0001092BC050895E8DFF9DF0C94C1130F9348
:100400001F93CF93DF93EC010E94A7138C01BE01D1
:1004100080E090E02091810D30E040E050E00E94CB
:10042000091DDC01CB01A80160E070E0480F591FF5
:100430006A1F7B1F4093B8055093B9056093BA05B6
:100440007093BB054091B8055091B9056091BA050C
:100450007091BB05AB01662777274093B805509391
:10046000B9056093BA057093BB054091B8055091EA
:10047000B9056091BA057091BB054115510561053B
:10048000710591F04091B8055091B9056091BA0598
:100490007091BB050196080F191F1093BE050093BC
:1004A000BD050E94AC1308C0080F191F1093BE05AC
:1004B0000093BD050E94B3138091BD059091BE05C8
:1004C0008436910530F48C599F4F9093BE058093EC
:1004D000BD058091BD059091BE050E94C513DF91B9
:1004E000CF911F910F9108951092BC050E94DF13C8
:1004F0008093810D08958091B8059091B905A091E0
:10050000BA05B091BB050097A105B105C9F080916E
:10051000B8059091B905A091BA05B091BB050197B6
:10052000A109B1098093B8059093B905A093BA05C4
:10053000B093BB050097A105B10511F40E94B31358
:100540008091BC058F5F8093BC059091810D8917C8
:1005500048F01092BC05E091BF05F091C0053097BE
:1005600009F0199508950E94AC13E091C105F0912E
:10057000C205309709F0199508959093C0058093AE
:10058000BF0508959093C2058093C1050895CF9348
:10059000DF931F92CDB7DEB78FEF80936400809317
:1005A00065008FB78983F89489815F9350E85093F1
:1005B000610050E0509361005F918FBF0F90DF9119
:1005C000CF910895CF93DF931F92CDB7DEB79FB73A
:1005D0009983F8949981823040F4E82FF0E0EC5947
:1005E000FF4F60958081682360839FBF0F90DF91EC
:1005F000CF910895CF93DF931F92CDB7DEB79FB70A
:100600009983F8949981823038F4E82FF0E0EC591E
:10061000FF4F8081682B60839FBF0F90DF91CF9148
:100620000895EF92FF920F931F93CF93DF937C0176
:100630008B01EA01209739F0F80161918F01C70120
:10064000A1D22197C9F780E0DF91CF911F910F913F
:10065000FF90EF900895EF92FF920F931F93CF9327
:10066000DF937C018B01EA01209739F0C70191D219
:10067000F80181938F012197C9F780E0DF91CF9135
:100680001F910F91FF90EF900895CF93DF931F92EA
:10069000CDB7DEB78091D00C9091D10CE091CC0C0D
:1006A000F091CD0CBE016F5F7F4F19958981082EA7
:1006B000000C990B0F90DF91CF910895682F8091D6
:1006C000D00C9091D10CE091CE0CF091CF0C1995FB
:1006D00099231CF081E090E008958FEF9FEF08953B
:1006E0002C9A249A6C98749A089581E08093D2058C
:1006F0001092C40580E98093BC00089561157105CE
:1007000029F18091C405811123C0ECECF5E07183DF
:100710006083138212821582148281E08093C40563
:10072000FB0184819581892B21F484E08093D2059B
:1007300003C082E08093D20585EA8093BC0080915B
:10074000C4058111FCCF8091D305089588EF0895E9
:1007500080E808956115710551F1FB01808591854F
:10076000892B39F18091C405811125C0ECECF5E0AD
:1007700071836083138212821582148281E08093D8
:10078000C405FB0184819581892B21F485E0809348
:10079000D20503C083E08093D20585EA8093BC0034
:1007A0008091C4058111FCCF8091D305089588EF15
:1007B000089588EF089580E80895F894ECEBF0E050
:1007C00010821092B900DB0114968C918093B800CE
:1007D00080818160808378941092C30580E00895C1
:1007E0001F920F920FB60F9211240BB60F922F93F8
:1007F0003F934F935F936F937F938F939F93AF93A9
:10080000BF93EF93FF938091B900887F90E0893C7C
:10081000910508F08CC1FC018827E656FF4F8F4FE9
:100820000C944E1D8091D2059EEF980F933060F48A
:10083000E091CC05F091CD0580818E7F8093BB0047
:1008400085E88093BC008BC1853061F4E091CC05D4
:10085000F091CD05808181608093BB0085E8809315
:10086000BC007DC142DF8BEF8093D30578C18091BE
:10087000D205843051F5ECECF5E08481958101904E
:10088000F081E02D208531858217930798F4268129
:100890003781AC014F5F5F4F5093D1054093D00536
:1008A000F901E80FF91F80818093BB0085E88093F0
:1008B000BC0055C184E98093BC00ECECF5E081E01C
:1008C000868317821092C4054AC19EEF980F92301A
:1008D00038F5ECECF5E082819381A081B181A80F1D
:1008E000B91F11962C910196938382832093BB00AC
:1008F00025E82093BC000190F081E02D2481358112
:100900002817390709F02BC18091D205823021F4D4
:1009100084E08093D20523C185E08093D2051FC176
:10092000853021F485EA8093BC0019C1DEDE8BEFAF
:100930008093D30514C1D9DE8FEF8093D3050FC107
:100940008091D205853001F5ECECF5E0A081B18114
:1009500018968D919C9119970197248135812817BC
:10096000390749F4ECEBF0E080818F7B8083808154
:1009700085688083F4C0ECEBF0E080818064808344
:10098000808185688083EBC0B0DE8BEF8093D305D8
:10099000E6C02091BB008091D205853069F5ECEC72
:1009A000F5E0A081B18116966D917C9117978481B5
:1009B0009581AC014F5F5F4F55834483FB01E80F86
:1009C000F91F208318968D919C91199701974817CC
:1009D000590748F4ECEBF0E08081806480838081EB
:1009E00085688083BCC0ECEBF0E080818F7B8083E6
:1009F000808185688083B3C078DE8BEF8093D305D8
:100A0000AEC02091BB008091D2058530E1F4ECECC2
:100A1000F5E0A081B18116964D915C911797848184
:100A20009581BC016F5F7F4F75836483DA01A80FE6
:100A3000B91F2C9384E98093BC0081E086831782E0
:100A40001092C4058CC051DE8BEF8093D30587C014
:100A5000ECECF5E081E0868386EF87831092C40595
:100A60007EC01092C8051092C705E5ECF5E0A081A4
:100A7000B18112962D913C91139782819381AC01A3
:100A80004F5F5F4F53834283D901A80FB91F8C91E9
:100A90008093BB0085EC8093BC0088E084835FC0BA
:100AA000E5ECF5E081E0848382E090E09683858345
:100AB00085EC8093BC0053C0E5ECF5E01382128214
:100AC00085EC8093BC0088E0848349C02091BB0002
:100AD000E5ECF5E0A081B1814D915C91828193813B
:100AE000BC016F5F7F4F73836283DA01A80FB91F68
:100AF0002C9385EC8093BC0088E0848330C0E5ECC7
:100B0000F5E081E0848383E090E09683858385EC43
:100B10008093BC0024C0E5ECF5E081E0848380E9AB
:100B20008093BC008FEF9FEF9683858318C08091E0
:100B3000C305811109C0ECECF5E081E086838BEF01
:100B400087831092C4050BC0E5ECF5E08EEF9FEFB4
:100B50009683858381E0848385EC8093BC00FF913C
:100B6000EF91BF91AF919F918F917F916F915F9125
:100B70004F913F912F910F900BBE0F900FBE0F9092
:100B80001F901895FC01908195FFFDCF668380E052
:100B90000895FC0190819923ECF7868108954F9286
:100BA0005F926F927F928F929F92AF92BF92CF92FD
:100BB000DF92EF92FF920F931F93CF93DF93EC019D
:100BC0006A017B0128013901689412F876946794D0
:100BD000579447941694D1F7888181FD0EC048013F
:100BE0005901072E73E1B694A794979487947A9548
:100BF000D1F7702DD301C20115C0D901C801689485
:100C000013F8B695A795979587951694D1F748014F
:100C10005901072E74E1B694A794979487947A9516
:100C2000D1F7702D8C159D05AE05BF0578F1C81460
:100C3000D904EA04FB0460F1888181FF10C0A70198
:100C40009601220F331F441F551FC301B2010E949A
:100C50002C1DDA01C9010197A109B10913C0C9010D
:100C6000B801689413F896958795779567951694CB
:100C7000D1F7A70196010E942C1DDA01C901019745
:100C8000A109B1099D838C8381E003C080E001C08C
:100C900080E0DF91CF911F910F91FF90EF90DF9057
:100CA000CF90BF90AF909F908F907F906F905F900C
:100CB0004F9008950F931F93CF93DF93EC018B0117
:100CC000803C910521F462E080E07CDC06C0883C39
:100CD000910519F461E081E075DC8A818F738A8364
:100CE000F8012681358184819A81482F4370440F11
:100CF000997F942B9A8399818470880F880F9B7FAA
:100D0000892B89838A818F7C832B8A839A81977F21
:100D1000822F880F880F880F892B8A834081518109
:100D20006281738100E012E12AE730E0CE0137DF13
:100D3000998198609983998190619983DF91CF918E
:100D40001F910F910895CF93DF93EB0122DF8883EA
:100D5000DF91CF91089516CF08950F931F93CF93EE
:100D6000DF93CDB7DEB727970FB6F894DEBF0FBE7F
:100D7000CDBF08EC10E01093D10C0093D00C8BEA9F
:100D800096E09093CF0C8093CE0C83EA96E09093FC
:100D9000CD0C8093CC0CEAE0F2E084818D838581D8
:100DA0008E8386818F8380819181A281B3818983A3
:100DB0009A83AB83BC83BE016F5F7F4F88EC90E06A
:100DC00079DF65E473E08EE593E00E94CD1DF801C4
:100DD00081818068818327960FB6F894DEBF0FBEAD
:100DE000CDBFDF91CF911F910F910895FF920F9387
:100DF0001F93CF93DF938C01F62EC62FD0E0AE0168
:100E0000B80188EC90E00DDC8111F9CF8F2DDF91D6
:100E1000CF911F910F91FF900895DC018091D5052E
:100E20009091D605891728F0282F291B2093D405E7
:100E300005C02CE9280F291B2093D4059091D405D7
:100E4000992331F19C3940F08093D6058CE9809349
:100E5000D4056C3938F403C0961708F4692F611172
:100E600002C018C06CE99091D605262FE92FF0E05A
:100E7000E952FA4F30813D9321509B3911F09F5F29
:100E800001C090E02111F2CF9093D605862F0895EE
:100E900080E0089580E00895CF93DF931F92CDB74F
:100EA000DEB7898361E0CE010196A0DF0F90DF916C
:100EB000CF9108951F920F920FB60F9211240BB687
:100EC0000F922F933F934F935F936F937F938F93E3
:100ED0009F93AF93BF93EF93FF93CF93DF931F92B3
:100EE000CDB7DEB741E050E0BE016F5F7F4F88ECC9
:100EF00090E0B1DBF8948091D505E82FF0E0E9525D
:100F0000FA4F998190838B3919F41092D50503C05B
:100F10008F5F8093D50578940F90DF91CF91FF91EB
:100F2000EF91BF91AF919F918F917F916F915F9161
:100F30004F913F912F910F900BBE0F900FBE0F90CE
:100F40001F901895E2EDFCE0148215821182108248
:100F500017AA16AAE8EDFCE088EF9CE01192119226
:100F6000E817F907D9F7ADD765D318D143D096D193
:100F700004C608959093D30C8093D20C0C947D11E9
:100F800008959093D50C8093D40C0C946B11089514
:100F9000E82FF0E0EE0FFF1FE852F34F71836083FC
:100FA00008959AD30E946A104ED03EC60895E091EB
:100FB0007306F09174063097D9F02281338182173D
:100FC000930789F405C0228133812817390759F422
:100FD000DC01AD57BF4F2C91278713962C91208BA6
:100FE00022E0248305C00190F081E02D309759F76D
:100FF00012C1089510927406109273060895FC01B0
:101000001482178613821282A2EDBCE0D6968D91CF
:101010009C91D7970196D7969C938E93D697809163
:10102000730690917406009739F411821082F09340
:101030007406E0937306089591838083F093740699
:10104000E093730608950F931F93CF93DF93E0917E
:101050007306F0917406309709F49BC0EF018C8100
:10106000882321F0823009F46EC08DC09ED08C019F
:10107000009721F482E08C838F878BC09B838A83C7
:1010800081E08C83F801E957FF4F87ED97E091836A
:1010900080833197898582FB882780F980839985B1
:1010A000D8011B968C911B9790FB80F91B968C9313
:1010B0001B97998593FB992790F990FB82F91B96D2
:1010C0008C931B9799859695917090FB81F91B964F
:1010D0008C931B97E2EDFCE084818F5F84831C96E8
:1010E0008C931C97808191811E969C938E931D9763
:1010F0008D819E8150969C938E931F978885982F03
:101100009F7051968C915197807F892B51968C932B
:1011100051979F819295907F8F70892B51968C93D8
:10112000F801EF57FF4F4C8550E06A857B85808141
:1011300091810E94C41DF80191818C85890F818362
:10114000C801E2D626C0EC17FD0741F480819181E9
:1011500090937406809373060AC0FC01808191818C
:101160008C179D07D1F78881998191838083E2ED67
:10117000FCE086A997A9019797AB86ABED85FE8524
:10118000CE01199506C00990D881C02D209709F08D
:1011900066CFDF91CF911F910F9108951092750640
:1011A0001092FE0610928707089580917506882395
:1011B00071F08091FE06882339F0809187078111B4
:1011C00027C082E090E005C081E090E002C080E0AE
:1011D00090E049E8489F9001499F300D1124C901D2
:1011E0008B58994FFC0111924A95E9F740E1FC01B7
:1011F0004183EF57FF4F2957394F31832083E2ED69
:10120000FCE026A937A92F5F3F4F37AB26AB0895E7
:1012100080E090E00895FC011082E2EDFCE086A9F8
:1012200097A9019797AB86AB0895009741F0FC0111
:10123000E757FF4F88E0E031F80718F012C0E5E704
:10124000F6E08081882321F00FC0808181110FC0DA
:10125000E757FF4F88E0E031F807B8F380E090E00F
:10126000089580E090E008958E2F9F2F08958E2F8F
:101270009F2F0895FC01DC01AD57BF4F1C92A2EDDA
:10128000BCE014969C9114979F5F14969C931497BE
:1012900094878D919C91968785870895A1E1B8E008
:1012A00080E090E04FEF5FEF11965C934E93FC016E
:1012B000EE0FFF1FEE0FFF1FEE0FFF1FE81BF90BD6
:1012C000E05FF74F20812E7F208314961C921497A5
:1012D000019617968436910539F708950F931F9359
:1012E000CF93DF93E1E1F8E020E030E0062F10E05B
:1012F0004081518148175907B1F4D901AA0FBB1F8A
:10130000AA0FBB1FAA0FBB1FA21BB30BA05FB74F37
:101310004C9146954170C42F40E0D42FC017D1079F
:1013200011F4CD0108C02F5F3F4F379624363105A9
:10133000F9F680E090E0DF91CF911F910F91089531
:10134000A0E0B0E0E0E1F8E0808180FD0DC08581A3
:10135000882381F0109739F015969C91159789177D
:1013600018F4DF0101C0DF0137968AE0EC3CF80792
:1013700059F7FD0180818D708063808380E88583CB
:10138000CF010895FC01808180FD05C08FEF9FEFA4
:101390009283818315820895A1DF009721F0FC01DB
:1013A0008381948108958FEF9FEF089597DF0097D1
:1013B00009F0E8CF08950F931F93CF93DF93FC01BB
:1013C0000185128511232CF4858596850817190748
:1013D000E1F5858196810196C1F1EF0160E0858597
:1013E00096857CDFFC01892BA1F08F819885019681
:1013F000F9F42091D20C3091D30C8F85988928175D
:101400003907B1F41483038380818F7080638083F4
:101410000AC096DFFC018D859E8592838183898534
:101420009A8594838383CD57DF4F888186830DC04F
:101430008381948108171907B1F39681DE01AD57B6
:10144000BF4F8C919817F0F2EECFDF91CF911F91A3
:101450000F910895CF93DF93FC01878590898F3F8B
:101460002FEF9207D9F1EF01638563FB662760F9DF
:1014700035DFDC01892B91F18C9180FD2FC0FE01BD
:10148000ED57FF4F8081811119C08C918F7080635F
:101490008C9315968C9115978F5F15968C938F3F33
:1014A000E9F4E5E1F8E021ED3AE0808186958F5F8F
:1014B00080833796E217F307C1F710C09C91892FFC
:1014C00082958F70815F8F70282F2295207F9F706B
:1014D000922B9C93811102C0CD0154DFDF91CF91FB
:1014E0000895CF93DF93FC01878590898F3F2FEF7D
:1014F000920729F48FEF9FEF908787830EC0238593
:1015000022FF03C09087878308C0EF01638563FBD8
:10151000662760F941DF98878F83DF91CF91089527
:10152000AF92BF92CF92DF92EF92FF921F93CF9331
:10153000DF93EC011B8513FB112710F9CF84D888AA
:10154000612FC60129DF019659F0FE01E957FF4FCF
:1015500011821082319782E08083CE01D5D422C0DF
:10156000AD84BE8422DE7C010097D1F083DEF701DA
:1015700081818A5F8183E957FF4F11821082F701D1
:10158000B08AA786EF57FF4F0190F081E02D81E0F0
:101590008083B282A182D482C3821583C701B4D46E
:1015A000CE0139DEDF91CF911F91FF90EF90DF9058
:1015B000CF90BF90AF900895FC012185263049F46B
:1015C0000780F085E02D658183819481EFDE81E0E5
:1015D000089580E00895DC0119962C911997222333
:1015E00071F01796ED91FC9118972081222319F044
:1015F000213019F006C022C50895DECF089580E09D
:10160000089580E00895BC01EEEDFAE020E13BE0B2
:1016100040E051E09081992319F091509083452F3B
:101620003596E217F307B1F7442319F0CB010C9478
:1016300029130895EEEDFAE080E19BE010823596E3
:10164000E817F907D9F7ECECFAE084E690E0A0E0BF
:10165000B0E086839783A087B187128683E09BE002
:10166000948783876BEE7AE080E092CC0895CF93E5
:10167000DF93DC01ED91FC91119721812838F9F479
:1016800020812F7D2134D9F412962C912031B8F08D
:10169000EC018BDD009799F020E2FC0120832A8188
:1016A00021832B81ED57FF4F20832C81319620839E
:1016B0004A8150E06881798102960E94C41DDF91C1
:1016C000CF910895662321F022E2FC012083089542
:1016D00024E2FC01208308952F923F924F925F9263
:1016E0006F927F928F929F92AF92BF92CF92DF9232
:1016F000EF92FF920F931F93CF93DF93CDB7DEB797
:101700002C970FB6F894DEBF0FBECDBF00E010E0FF
:101710000F2EF4E2BF2EF02D0F2EF2EDEF2EFCE097
:10172000FF2EF02DAA24A3946894662464F868948C
:10173000552453F86894442442F8212C312C0F2E60
:10174000FFE17F2EF02DCC24C394D12CEFC1D80122
:101750008C91823209F41AC130F4803259F081320E
:1017600009F410C1E3C1833209F4DBC1843209F406
:10177000DBC1DCC1F801B082838583FDD7C125813F
:1017800036812F3F3F4FC9F4D8011F962D913C91D0
:101790005097F701408151814217530721F02F3FA5
:1017A0003F4F09F0C3C181FF04C0E1E2D801EC93CF
:1017B000BDC1E2E2D801EC93B9C1D8011F962D91C9
:1017C0003C9150972F3F3F4F11F480FDAFC1F7017F
:1017D00020813181D8011D968D919C911E972817EB
:1017E000390709F4A3C1C801E6DDEAEDFAE080E0BB
:1017F00090E0822C932C9C014481442309F474C012
:10180000D8011D966D917C911E974081518164177E
:10181000750709F06AC01C968C911C97F901EE0FB0
:10182000FF1FEE0FFF1FE20FF31FE652F54F9281ED
:10183000981B983008F03EC0F901EE0FFF1FEE0F25
:10184000FF1FE20FF31FE652F54F8381482F50E050
:10185000092E02C0559547950A94E2F740FF17C03C
:10186000F7012081318117968D919C911897281747
:10187000390709F05BC11B966C911B9763FB6627C8
:1018800060F91F968D919C91509790DD4FC1F901A1
:10189000EE0FFF1FEE0FFF1F2E0F3F1FF901E65245
:1018A000F54F960102C0220F331F9A95E2F7822B63
:1018B000838343C1F901EE0FFF1FEE0FFF1F2E0FB1
:1018C0003F1FF901E652F54F82838381282F30E0D4
:1018D0009195A90102C0440F551F9A95E2F7CA01DC
:1018E00081608383748229C14F01019635968A30C5
:1018F000910509F080CF8114910409F417C1D80132
:101900001D968D919C911E97F401918380831C9666
:101910008C918283A38274828CEC9AE09AD60DC15A
:10192000D7012D913C91F8018785908928173907B7
:1019300081F0438542FD0BC0C8013BD3D7012D91F7
:101940003C91F801878590892817390711F0019695
:1019500069F4D8011B968C911B9781FF03C0E1E2CB
:10196000EC93E4C0E2E2D801EC93E0C0D801179612
:101970008D919C9118978217930709F0D7C0E3E2E5
:10198000EC93D4C060E0C801FFD0D0C01092D90A57
:10199000D80151968C91519782958F70E82FF0E085
:1019A000EE0FFF1FE852F34F0190F081E02D3097CA
:1019B00009F460C01D962D913C911E973A832983AE
:1019C0001F964D915C9150975C834B8351969C91EF
:1019D00051979F709D838E83AF57BF4F8D919C9180
:1019E00099878887B8016E5F7F4F861B970BD80158
:1019F00011969C911197981B9A87AD57BF4F8C9168
:101A00008B8711968C918C87D8011B969C91692F9E
:101A1000637092FD02C080E001C080E2862B93FDDE
:101A200002C090E001C090E4892B4F3F5F4F11F05E
:101A300090E001C0942D892BD80119964D915C91AD
:101A40001A972417350711F090E001C0952D892BC6
:101A50008F83D80115962D913C9116972F3F3F4FBC
:101A600011F090E001C0962D892B8F83CE01019655
:101A7000199501C080E0F801938590FF80E0D801BE
:101A800017962D913C9118972F3F3F4F69F4F7011E
:101A900040815181D8011F962D913C91509742175A
:101AA000530711F493FF8A2DF801258136812F3FCA
:101AB0003F4FA1F1D7012D913C912F3F3F4F71F145
:101AC000882361F172DB4C01009741F1D3DBF40113
:101AD00081818D5F8183E957FF4F11821082D80188
:101AE0001B968C911B9786958170F401938580FBE2
:101AF00091F993871D968D919C911E97908B878766
:101B0000EF57FF4F0190F081E02D10828091D90AAC
:101B100082831C968C918183C401F6D1D801BC923A
:101B200005C0C801FDDC02C0C80175DBC8017DDB52
:101B30008C01892B09F00BCE07C0F80187819085B5
:101B4000019609F0FBCEECCE2C960FB6F894DEBFD2
:101B50000FBECDBFDF91CF911F910F91FF90EF90FE
:101B6000DF90CF90BF90AF909F908F907F906F90BD
:101B70005F904F903F902F9008951092210B1092FC
:101B8000200B10921F0B0895662321F020E3FC0127
:101B9000208303C021E3FC0120838091210B8F5F10
:101BA0008093210B0895CF93DF93C0911F0BD091A9
:101BB000200BFE01EF57FF4FA081B18170911D0BEB
:101BC000872F90E050911E0B652F513108F060E196
:101BD0006623D1F040911C0BECE0FBE0A80FB91F8D
:101BE0002FEF260F30E0235F344F9C9180818927AF
:101BF0008D93442311F0808303C0908189278083D3
:101C00003196E217F30789F7760F70931D0B561B79
:101C100050931E0B552319F082E3888302C084E39E
:101C20008883DF91CF9108950F931F93CF93DF9314
:101C30008091210B882309F4E1C0E0911F0BF09102
:101C4000200B309709F4D4C08081843309F055C04B
:101C500080911D0BDF01AF57BF4FCD91DC91C80FB5
:101C6000D11DACE0BBE00D911D912D913C911397DE
:101C700014964D915D916D917C91179704271527CE
:101C80002627372718964D915D916D917C911B9772
:101C900004271527262737271C964D915D916D91B6
:101CA0007C911F97D901C80184279527A627B727BC
:101CB00020911C0B222351F088839983AA83BB8334
:101CC00081818C5F8183CF01DED10DC061E008810D
:101CD00019812A813B81081719072A073B0709F058
:101CE00060E0CF01EFDC1092200B10921F0B80916F
:101CF000210B81508093210B81C0823309F07EC07B
:101D000083E3808368EF7CE08CE09BE0C9D376C0FE
:101D1000DC012C912053223008F06CC09093200BF2
:101D200080931F0BECE0FBE01C964C911C9750E05D
:101D300060E070E040835183628373831F964D910E
:101D40005C91509760E070E0BA01552744275196A6
:101D50002C91519722952F70422B44835583668393
:101D600077831D964D915C911E9760E070E0BA01FB
:101D70005527442751962C9151972F70422B40871D
:101D800051876287738715964D915C91169760E035
:101D900070E0BA01552744271B962C911B97422BC4
:101DA00044875587668777876C91613331F4119644
:101DB0002C911197245011962C93FC01EF57FF4F53
:101DC000408151819C012E5F3F4F421B530BFC0110
:101DD0002181241B20931E0B10921D0B21E06033E8
:101DE00009F020E020931C0B22E3DC012C9306C0B9
:101DF00080E090E01ADA009709F08ACFDF91CF9166
:101E00001F910F910895EF92FF920F931F93CF931D
:101E10007C0110E080E090E001E0C3E113C0FC0130
:101E20002081213179F4EC57FF4F208131812150FD
:101E3000310931832083232B21F4FC01C083102F2F
:101E400001C0102FF2D9009751F7112311F0C701EB
:101E500000D4CF911F910F91FF90EF900895EF92D2
:101E6000FF920F931F93CF93DF937C0110E080E0EC
:101E700090E001E0D7E1C0E116C0FC0120812631ED
:101E800091F4EC57FF4F208131812150310931838A
:101E90002083232B39F4FC01D083ED57FF4FC083FF
:101EA000102F01C0102FC1D9009739F7112311F05D
:101EB000C701CFD3DF91CF911F910F91FF90EF908A
:101EC000089510923D0B10923C0BEFE2FBE082E391
:101ED00090E0A0E0B0E086839783A087B187128668
:101EE0008FE29FE094878387E2E2FBE08AE090E064
:101EF000A0E0B0E086839783A087B187128683E055
:101F00009FE0948783870895CF93DF93EC01FC01D2
:101F1000EA57FF4F808181FF03C092E1988308C098
:101F20009B8591FF03C090E1988302C092E1988362
:101F3000FE01ED57FF4F108280FF05C02FEF3FEFEE
:101F40003E832D8306C02091D40C3091D50C3E8366
:101F50002D83857019F4CE01C4DA04C08F85988969
:101F600098878F83E2EDFCE0808191819A87898751
:101F700085818F5F85838C838F819885019671F42D
:101F800081E498E89B838A830E94B61DCC57DF4F7B
:101F90008770992701969983888308C081E698E81D
:101FA0009B838A83CC57DF4F19821882DF91CF91B0
:101FB00008950F931F93CF93DF938C01F6D8EC0114
:101FC000892BB9F182E18883F80181818983FE013F
:101FD000ED57FF4F10820E94B61DFE01EC57FF4FD8
:101FE000877099270196918380833396118210829E
:101FF000F801418150E0B8016E5F7F4FCE0102963B
:102000000E94C41D81E498E89B838A838FEF9FEF31
:1020100098878F83F801858196819E838D83E2ED79
:10202000FCE0808191819A87898785818F5F858394
:102030008C83DF91CF911F910F910895CF93DF9300
:10204000FC0121852330D9F410C0FC012081263108
:1020500089F43485298132130DC027E120832A8138
:10206000EA57FF4F208381E00BC0FC01C781D08578
:1020700080E090E0DAD8009741F780E001C080E08E
:10208000DF91CF91089522E1FC0120830895E09132
:102090003C0BF0913D0B813021F048F0823019F07B
:1020A00004C080E205C081E203C081E001C080E09D
:1020B000DF01AD57BF4F8C9385E1808310923D0BBC
:1020C00010923C0BE2EDFCE086A997A9019797AB33
:1020D00086AB08959F92AF92BF92CF92DF92EF921C
:1020E000FF920F931F93CF93DF93C0E0D0E00F2EAA
:1020F000F4E1AF2EF02D02ED1CE00F2EF7E1DF2E04
:10210000F02D0F2EF6E19F2EF02D0F2EF5E1EF2E84
:10211000F12CF02D0F2EF3E1CF2EF02D0F2EF1E14B
:10212000BF2EF02D65C088818331F1F028F4803115
:1021300049F0823159F05CC0853161F1873109F491
:1021400048C056C061E0CE011FDD52C0FE01EC5711
:10215000FF4F80819181892B29F0B88282E29BE038
:1021600078D246C0C88244C080913C0B90913D0B10
:10217000892B09F03DC0D0933D0BC0933C0BFE0171
:10218000A192CF01D1D0F80186A997A9019697AB6A
:1021900086AB2EC0FE01ED57FF4F8081811117C025
:1021A0002D853E85F801808191812817390769F4D2
:1021B0008B8580FF0AC09882FE01EC57FF4FF182A9
:1021C000E0828FE29BE045D213C0D88211C0D88252
:1021D0000FC0CE013FD9FE01E957FF4F0190F081BA
:1021E000E02D309719F4CE0116D802C0CE01199512
:1021F000CE011BD8EC01892B09F095CFDF91CF914F
:102200001F910F91FF90EF90DF90CF90BF90AF9014
:102210009F90089580913E0B982F9F70E4E5F1E028
:102220008081807F892B808380913E0B882329F0D9
:1022300080913F0B80935301089580913F0B982F1D
:102240009F71E8E4F1E08081807E892B808308958E
:10225000A2E4B1E023E0E1E4F1E02C9390819F71EE
:102260009830D9F7A2E4B1E0E1E4F1E08C939081F9
:102270009F718913FBCF089588E0EADF8FEF809389
:102280004F018091400B882311F086E1E1CF089542
:1022900060E481E00E94E202E9E3F1E08081816094
:1022A00080831092400B10923E0B81E08093C10B13
:1022B00088E0CEDF8BEE80935601ECE4F1E0808184
:1022C0008068808308958093400BD6CF08958093D3
:1022D0003F0BA0CF0895CF93DF931F921F92CDB7EE
:1022E000DEB79A838983809362018A818093630138
:1022F0000F900F90DF91CF910895CF93DF931F92AE
:102300001F92CDB7DEB79A838983809360018A815B
:102310008093610199818A81890F80936D010F906B
:102320000F90DF91CF910895CF93DF93EC0189E176
:102330008FDF8FEF80934F0188818E5F80938001C4
:102340008881882381F020E0822F90E0FC01EF5704
:10235000FE4FDE01A80FB91F11968C9180832F5F6D
:102360008881281788F383E08093C10B82E08093F3
:102370004201DF91CF910895CF93DF93EC01CB0120
:1023800040E060E051D6CE0139D6CE01DBD6DF91F8
:10239000CF9108951F93CF93DF9300D01F921F9288
:1023A000CDB7DEB78091C10B823009F465C0809152
:1023B0004F0183FF3EC0A0917B016A2F70E0AB010B
:1023C0004F5F5F4F80E090E020E0FC01E058FE4F5F
:1023D0003081FC01EF5BF44F30832F5F822F90E060
:1023E0008417950794F381E49BE09A838983A25034
:1023F000AB83FB01EF5BF44F80818C8380914701BD
:102400008A558D83CE01019632D9E1E4F1E08081D5
:102410008F718631E1F7EFE4F1E08081886080839D
:10242000ECE4F1E080818F77808380818068808315
:1024300023C080914F0186FF1FC0809141018F71A1
:102440008931A9F41091420112951695177049F03F
:10245000133021F0153021F013E003C011E001C06A
:1024600012E00ADF81E08093C10B812F10DEEFE4E0
:10247000F1E08081806480830F900F900F900F9027
:102480000F90DF91CF911F9108957BD0B6D500DFDB
:102490000C94A20708957EDF0E94D107E5C008953D
:1024A0006BDF81CB08950F931F93CF93DF93EC01E4
:1024B0008091C20B9091C30B009709F445C04E81E7
:1024C0005F8168857985FC010281138124813581D2
:1024D000401751076207730760F0DC0117C00281E3
:1024E000138124813581401751076207730768F40F
:1024F00003C0FC01A0E0B0E0041B150B260B370B5A
:1025000002831383248335830AC0DF01401B510BF0
:10251000620B730BED91FC911197309701F74A8391
:102520005B836C837D83109741F08D919C91119713
:1025300099838883CD93DC9315C099838883D09346
:10254000C30BC093C20B0EC0198218828E819F816B
:10255000A885B9858A839B83AC83BD83D093C30B45
:10256000C093C20BDF91CF911F910F91089580917D
:102570000A0D8F5F80930A0D80E197E20C94FF01B2
:10258000089510920A0D87EB92E10E94C2020E9408
:10259000740280E197E20E94FF011092C30B109237
:1025A000C20B0895CF93DF93A091C20BB091C30BE0
:1025B000109791F1A817B90751F50AC08E179F0718
:1025C00029F5109731F0208131812D933C9307C07C
:1025D000FC01208131813093C30B2093C20B019009
:1025E000F081E02D3097C1F0428153816481758183
:1025F000EC018A819B81AC81BD81840F951FA61F50
:10260000B71F82839383A483B58306C0DF01ED9156
:10261000FC911197309791F6DF91CF910895E09159
:10262000C20BF091C30B309771F0E817F90721F452
:102630000CC08E179F0759F00190F081E02D309764
:10264000C1F780E0089580E0089581E0089581E079
:102650000895CF93DF93EC01E2DF811102C0CE0138
:1026600022DFDF91CF910895CF92DF92EF92FF9218
:102670000F931F93CF93DF931F92CDB7DEB7809157
:102680000A0D882309F453C08FB78983F894898190
:10269000C0900A0D10920A0D8FBFD12CE12CF12CA5
:1026A000CC0CDD1CEE1CFF1CD701C601880F991F46
:1026B000AA1FBB1F880F991FAA1FBB1FC80ED91EB8
:1026C000EA1EFB1E1BC0C81AD90AEA0AFB0AD80177
:1026D0008D919C9111979093C30B8093C20B1A9686
:1026E0008C91813011F4C801DEDED8011B96ED918A
:1026F000FC911C97309711F0C80119950091C20BFD
:102700001091C30B0115110591F0F801828193819D
:10271000A481B581C816D906EA06FB06A0F68C1975
:102720009D09AE09BF0982839383A483B5830F906B
:10273000DF91CF911F910F91FF90EF90DF90CF909D
:1027400008950C947B0208950C94B302089580912F
:102750008400909185000895EFE6F0E080818D7F00
:102760008083B19A0895B19AEFE6F0E080818260AB
:1027700080830895EFE6F0E0808181608083B09AE5
:10278000089580E890E082C30895E9E8F0E02081B0
:10279000922B9083E8E8F0E09081892B8083089564
:1027A000CF93DF931F92CDB7DEB78FB78983F894AD
:1027B00089810F90DF91CF9108958FBF0895CF93B6
:1027C000DF9380E890E0EBD261EA73E180E890E08B
:1027D000D4D3CFE6D0E088818160888364EA73E156
:1027E00080E890E0EAD388818D7F8883E1E8F0E09B
:1027F00080818160808388E0DF91CF9108951F926E
:102800000F920FB60F9211240BB60F922F933F9396
:102810004F935F936F937F938F939F93AF93BF93E8
:10282000EF93FF93E091E20BF091E30B309709F007
:102830001995FF91EF91BF91AF919F918F917F91EA
:102840006F915F914F913F912F910F900BBE0F9021
:102850000FBE0F901F9018951F920F920FB60F92F8
:1028600011240BB60F922F933F934F935F936F9367
:102870007F938F939F93AF93BF93EF93FF93E091D9
:10288000E00BF091E10B309709F01995FF91EF9172
:10289000BF91AF919F918F917F916F915F914F9178
:1028A0003F912F910F900BBE0F900FBE0F901F9076
:1028B00018951F920F920FB60F9211240BB60F921C
:1028C0002F933F934F935F936F937F938F939F9338
:1028D000AF93BF93EF93FF93E091DE0BF091DF0B8B
:1028E000309709F01995FF91EF91BF91AF919F91AA
:1028F0008F917F916F915F914F913F912F910F90A9
:102900000BBE0F900FBE0F901F9018951F920F9245
:102910000FB60F9211240BB60F922F933F934F9344
:102920005F936F937F938F939F93AF93BF93EF9337
:10293000FF93E091DC0BF091DD0B309709F01995D6
:10294000FF91EF91BF91AF919F918F917F916F9187
:102950005F914F913F912F910F900BBE0F900FBE43
:102960000F901F9018951F920F920FB60F9211247F
:102970000BB60F922F933F934F935F936F937F9379
:102980008F939F93AF93BF93EF93FF93E091DA0BF5
:10299000F091DB0B309709F01995FF91EF91BF9102
:1029A000AF919F918F917F916F915F914F913F91E7
:1029B0002F910F900BBE0F900FBE0F901F90189588
:1029C0001F920F920FB60F9211240BB60F922F93F6
:1029D0003F934F935F936F937F938F939F93AF93A7
:1029E000BF93EF93FF93E091D80BF091D90B309701
:1029F00009F01995FF91EF91BF91AF919F918F9140
:102A00007F916F915F914F913F912F910F900BBEEE
:102A10000F900FBE0F901F9018951F920F920FB638
:102A20000F9211240BB60F922F933F934F935F9306
:102A30006F937F938F939F93AF93BF93EF93FF9386
:102A4000E091D60BF091D70B309709F01995FF91D3
:102A5000EF91BF91AF919F918F917F916F915F9116
:102A60004F913F912F910F900BBE0F900FBE0F9083
:102A70001F9018951F920F920FB60F9211240BB64C
:102A80000F922F933F934F935F936F937F938F9307
:102A90009F93AF93BF93EF93FF93E091D40BF0918B
:102AA000D50B309709F01995FF91EF91BF91AF9138
:102AB0009F918F917F916F915F914F913F912F9156
:102AC0000F900BBE0F900FBE0F901F9018951F9286
:102AD0000F920FB60F9211240BB60F922F933F93C4
:102AE0004F935F936F937F938F939F93AF93BF9316
:102AF000EF93FF93E091D20BF091D30B309709F055
:102B00001995FF91EF91BF91AF919F918F917F9117
:102B10006F915F914F913F912F910F900BBE0F904E
:102B20000FBE0F901F9018951F920F920FB60F9225
:102B300011240BB60F922F933F934F935F936F9394
:102B40007F938F939F93AF93BF93EF93FF93E09106
:102B5000D00BF091D10B309709F01995FF91EF91BF
:102B6000BF91AF919F918F917F916F915F914F91A5
:102B70003F912F910F900BBE0F900FBE0F901F90A3
:102B800018951F920F920FB60F9211240BB60F9249
:102B90002F933F934F935F936F937F938F939F9365
:102BA000AF93BF93EF93FF93E091CE0BF091CF0BD8
:102BB000309709F01995FF91EF91BF91AF919F91D7
:102BC0008F917F916F915F914F913F912F910F90D6
:102BD0000BBE0F900FBE0F901F9018951F920F9273
:102BE0000FB60F9211240BB60F922F933F934F9372
:102BF0005F936F937F938F939F93AF93BF93EF9365
:102C0000FF93E091CC0BF091CD0B309709F0199523
:102C1000FF91EF91BF91AF919F918F917F916F91B4
:102C20005F914F913F912F910F900BBE0F900FBE70
:102C30000F901F9018951F920F920FB60F921124AC
:102C40000BB60F922F933F934F935F936F937F93A6
:102C50008F939F93AF93BF93EF93FF93E091CA0B32
:102C6000F091CB0B309709F01995FF91EF91BF913F
:102C7000AF919F918F917F916F915F914F913F9114
:102C80002F910F900BBE0F900FBE0F901F901895B5
:102C90001F920F920FB60F9211240BB60F922F9323
:102CA0003F934F935F936F937F938F939F93AF93D4
:102CB000BF93EF93FF93E091C80BF091C90B30974E
:102CC00009F01995FF91EF91BF91AF919F918F916D
:102CD0007F916F915F914F913F912F910F900BBE1C
:102CE0000F900FBE0F901F9018951F920F920FB666
:102CF0000F9211240BB60F922F933F934F935F9334
:102D00006F937F938F939F93AF93BF93EF93FF93B3
:102D1000E091C60BF091C70B309709F01995FF9120
:102D2000EF91BF91AF919F918F917F916F915F9143
:102D30004F913F912F910F900BBE0F900FBE0F90B0
:102D40001F9018951F920F920FB60F9211240BB679
:102D50000F922F933F934F935F936F937F938F9334
:102D60009F93AF93BF93EF93FF93E091C40BF091C8
:102D7000C50B309709F01995FF91EF91BF91AF9175
:102D80009F918F917F916F915F914F913F912F9183
:102D90000F900BBE0F900FBE0F901F9018951F93B2
:102DA000CF93DF931F92CDB7DEB72FB72983F89467
:102DB0001981009709F464C08837910549F461E0EE
:102DC00080E00E94E20260E180E00E94E20258C0DE
:102DD000803C910529F462E080E00E94E20250C04C
:102DE0008C34910529F464E080E00E94E20248C03E
:102DF0008038910529F468E080E00E94E20240C03A
:102E00008434910529F460E280E00E94E20238C037
:102E1000803B910529F460E480E00E94E20230C02A
:102E2000883B910529F460E880E00E94E20228C016
:102E3000883C910529F461E081E00E94E20220C013
:102E40008039910529F468E081E00E94E20218C00F
:102E5000803A910529F460E181E00E94E20210C00D
:102E6000803221E0920729F460E281E00E94E202D0
:102E700007C08334914021F460E481E00E94E202C3
:102E80001FBF0F90DF91CF911F9108951F93CF9394
:102E9000DF931F92CDB7DEB72FB72983F89419813E
:102EA000009709F464C08837910549F461E080E037
:102EB0000E94FA0260E180E00E94FA0258C0803C61
:102EC000910529F462E080E00E94FA0250C08C343F
:102ED000910529F464E080E00E94FA0248C080383D
:102EE000910529F468E080E00E94FA0240C0843431
:102EF000910529F460E280E00E94FA0238C0803B2C
:102F0000910529F460E480E00E94FA0230C0883B19
:102F1000910529F460E880E00E94FA0228C0883C0C
:102F2000910529F461E081E00E94FA0220C0803915
:102F3000910529F468E081E00E94FA0218C0803A05
:102F4000910529F460E181E00E94FA0210C080320C
:102F500021E0920729F460E281E00E94FA0207C0B2
:102F60008334914021F460E481E00E94FA021FBFA3
:102F70000F90DF91CF911F9108958038910529F42A
:102F80007093E30B6093E20B08958039910529F467
:102F90007093DB0B6093DA0B0895803A910529F466
:102FA0007093D30B6093D20B08958032914021F43B
:102FB0007093CB0B6093CA0B08958038910529F468
:102FC0007093E10B6093E00B08958039910529F42B
:102FD0007093D90B6093D80B0895803A910529F42A
:102FE0007093D10B6093D00B08958032914021F4FF
:102FF0007093C90B6093C80B08950895FC019C0160
:10300000205F3F4FAEE3B1E081918C93E217F3076D
:10301000D9F78091040C806880933C01EDE3F1E0E6
:10302000808180FFFDCF08950F931F93CF93DF938F
:10303000CDB7DEB760970FB6F894DEBF0FBECDBF39
:10304000062F142F0097C9F01092050C22E0209350
:10305000110220E1FC01A4EFBBE001900D922A9542
:10306000E1F7DC01AC01405F5F4F2FE331E09D9160
:10307000F90190834A175B07D1F7112319F011303A
:1030800089F048C080911102813079F5E4EFFBE0CE
:1030900024E03CE0AFE3B1E081918C932E173F0731
:1030A000D9F723C0809111028130B1F18091050CD4
:1030B000811136C01092040C10923C01CE01019691
:1030C0009DDFE4EEFBE024EF3BE0AFE3B1E08C9169
:1030D00081932E173F07D9F781E08093050C20C01C
:1030E00081918C932E173F07D9F71093110202306C
:1030F000A8F4F0E20F9FC0011124082F0072110FF5
:10310000110F110F1870102B1093040C10933C0129
:1031100081E00DC080E00BC080E009C080E007C006
:10312000E4EEFBE024EF3BE0AFE3B1E0D9CF609603
:103130000FB6F894DEBF0FBECDBFDF91CF911F91C8
:103140000F910895FC019C01205F3F4FAEE3B1E079
:103150008C918193E217F307D9F7089504C0615069
:103160007109810991096115710581059105B9F709
:10317000089580E183B908958530910529F021E013
:10318000099719F020E001C021E0822F0895FC0189
:1031900026812F9385818F9382E192E09F938F9375
:1031A00046D50F900F900F900F9008958091060CC8
:1031B000811107C080E99CE04CDA81E08093060C25
:1031C00008958AE292E09F938F9331D50F900F90EC
:1031D00008952F923F924F925F926F927F928F92BB
:1031E0009F92AF92BF92CF92DF92EF92FF920F9396
:1031F0001F93CF93DF93CBE7DDE00F2EF4EBEF2EA1
:10320000F5E0FF2EF02D0F2EFFE7AF2EFDE0BF2ED5
:10321000F02D02E71CE0332433946894222421F833
:103220004E010F2EF9E0CF2EFCE0DF2EF02D0F2EF9
:10323000F7EC6F2EF8E17F2EF02D0F2EF0E64F2EDB
:10324000F2E05F2EF02D8981882309F453C0F70145
:1032500080819181F801968385833782308621862B
:10326000F40181818130D1F4E0910D0DF0910E0DCA
:1032700081811F928F9380811F928F9388E592E0C6
:103280009F938F93DF92CF92E5D48DB79EB7089628
:103290000FB6F8949EBF0FBE8DBF22C08230C1F41E
:1032A000E0910B0DF0910C0D81811F928F93808125
:1032B0001F928F935F924F92DF92CF92CBD4EDB754
:1032C000FEB738960FB6F894FEBF0FBEEDBF08C02C
:1032D0008EE0E8E6F2E0D60101900D928A95E1F7E2
:1032E000F801D386C28629E6248776866586C801DA
:1032F0000E94FF07229682E0E80EF11CCA15DB054A
:1033000009F0A1CF1092080CDF91CF911F910F917E
:10331000FF90EF90DF90CF90BF90AF909F908F90F5
:103320007F906F905F904F903F902F90089586E729
:1033300092E09F938F937BD40F900F9080917C0DA0
:10334000882311F180917B0D823080F48F5F809310
:103350007B0D1F9281E08F9389E792E09F938F937B
:1033600066D40F900F900F900F900EC010927C0DAE
:103370001F9281E08F938CEB92E09F938F9357D4B1
:103380000F900F900F900F9080917E0D882311F178
:1033900080917D0D823078F010927E0D1F9282E038
:1033A0008F938CEB92E09F938F9341D40F900F906B
:1033B0000F900F900FC08F5F80937D0D1F9282E062
:1033C0008F9389E792E09F938F9331D40F900F9062
:1033D0000F900F9086E792E09F938F9328D4F9DEA9
:1033E0000F900F900895E2E7FCE080917F0D90919F
:1033F000800D9683858381E08783808782E0818743
:1034000089E09CE09387828789E6848787EC98E14E
:1034100096878587CF010E94FF071092080C0895B8
:10342000E2CF0895CF92DF92EF92FF92CF93E0E93F
:10343000FCE00F2EF8EECF2EF3E0DF2EE12CF12C86
:10344000F02DC682D782E086F186C1E0C28789EB83
:1034500098E194878387EDE9FCE088E893E1A0E0B8
:10346000B0E086839783A087B187C2878DEB9AE10E
:1034700094878387CF01EDD8E3E8FCE0C682D7824A
:10348000E086F186C28787E999E194878387CF91A7
:10349000FF90EF90DF90CF900895CF93DF93CDB75B
:1034A000DEB72A970FB6F894DEBF0FBECDBFFE0180
:1034B00031968AE0DF011D928A95E9F786E98983D2
:1034C00081E08A8381E090E09E838D8323EB35E069
:1034D00038872F839A878987BE016F5F7F4F88EB7C
:1034E00090E00E947E038111F7CF6BE07AE180E0EB
:1034F00090E034DE2A960FB6F894DEBF0FBECDBF43
:10350000DF91CF910895CF93DF93CDB7DEB72C979E
:103510000FB6F894DEBF0FBECDBF19821A82FE012E
:1035200033968AE0DF011D928A95E9F786E98B835D
:1035300081E090E098878F83CE0101969A878987F2
:1035400082E090E09C878B87BE016D5F7F4F88EBA8
:1035500090E00E94AA038111F7CFEFE0FDE089819E
:1035600080838A818183CF012C960FB6F894DEBFC9
:103570000FBECDBFDF91CF9108958EEF92E09F9364
:103580008F9355D3C0DF90930C0D80930B0DFC01EE
:1035900021811F922F9380811F928F9380E593E06A
:1035A0009F938F9344D3E0910B0DF0910C0D8DB749
:1035B0009EB708960FB6F8949EBF0FBE8DBF808150
:1035C0008E3168F0EBE7FDE083E08183838386E062
:1035D00095E09F938F932BD30F900F9007C0EBE74D
:1035E000FDE082E0818310828383128286E792E08D
:1035F0009F938F931CD3EDDD83E89CE00E94D21251
:1036000083E89CE026D80F900F9008951F93CF93E6
:10361000DF93EC0189818F9388818F938AE793E010
:103620009F938F9304D30F900F900F900F908A81E8
:103630009B81019639F48DE893E09F938F93F7D2A5
:103640000F900F908DEA95E09F938F93F0D22F818A
:1036500038850F900F90D901EC918E2F90E0FC01EE
:10366000E154F109E733F10508F0FAC08827ED5974
:10367000FE4F8F4F13C28EE993E09F938F93D7D263
:103680008881998179DD0F900F90811108C086EBB8
:1036900093E09F938F93CBD20F900F90F7C086DD6E
:1036A000F5C0F9018281803341F58EEE93E09F935E
:1036B0008F93BDD2888199815FDD0F900F9081112A
:1036C00008C083E094E09F938F93B1D20F900F9046
:1036D000DDC08091060C882339F080E99CE00E94CF
:1036E000D2121092060C07C08EE394E09F938F9342
:1036F0009ED20F900F902C9AC9C08EE993E09F93B1
:103700008F9395D28881998137DD0F900F90811129
:1037100008C086EB93E09F938F9389D20F900F9010
:10372000B5C044DDB3C08FE694E09F938F937FD202
:103730008881998121DD0F900F90811108C087E861
:1037400094E09F938F9373D20F900F909FC0DBDE16
:1037500090930E0D80930D0DDC0111962C91119715
:103760001F922F938C911F928F9385EC94E09F93DF
:103770008F935DD2E0910D0DF0910E0D0F900F9093
:103780000F900F900F900F9080818E3170F0EBE7CB
:10379000FDE083E08183838385E095E09F938F93B1
:1037A00046D217DD0F900F902EC0A881B981AA0FC5
:1037B000BB1FA758B24F81E011968C93A881B981A5
:1037C000AA0FBB1FA758B24F1C9281811F928F93E3
:1037D00080811F928F9388E592E09F938F9389E079
:1037E0009CE09F938F9336D2888199819093800D2E
:1037F00080937F0DF8DDEDB7FEB738960FB6F894DD
:10380000FEBF0FBEEDBF8DE99CE00E94D2128DE994
:103810009CE00E94291383E89CE00E94D21283E876
:103820009CE00E94291332C08BE595E09F938F9313
:10383000FED10990D881C02DCE019EDC0F900F9053
:10384000811108C088E695E09F938F93F0D10F9087
:103850000F901CC0CC0FDD1FC758D24F198216C065
:1038600083E995E09F938F93E2D10F900F90898524
:10387000882361F010E0EF81F885E10FF11D808170
:103880000E944C071F5F89851817A8F386E792E00E
:103890009F938F93CCD10F900F9081E0DF91CF91C8
:1038A0001F9108950F931F93CF93DF9300D000D003
:1038B000CDB7DEB78E010F5F1F4F86E0F801119282
:1038C0008A95E9F788E498EEA1E0B0E089839A83CD
:1038D000AB83BC8386E98E8388E18D8360E880E0DA
:1038E0000E94E202B80188EB90E00E94DD03269678
:1038F0000FB6F894DEBF0FBECDBFDF91CF911F9101
:103900000F910895CF93DF931F92CDB7DEB70E943A
:10391000C7020E9470030E9445128FB78983F894F2
:1039200089815F9350E85093610050E050936100AB
:103930005F918FBFB7DFB1DD0E94AD0678942C9800
:1039400071DD0F2EFAEACF2EFCE0DF2EF02D0F2EC8
:10395000F4E14F2E512C612C712CF02D0F2EF0E143
:10396000AF2EFAE1BF2EF02D0E944B128091B70CC2
:1039700081111EC085E090E00E94BA0788E695E4B8
:103980000E94C10780E00E94671181E00E946311DC
:1039900066E07BE181E00E94C807F601468257821B
:1039A000608671861286B486A38681E08093B70C08
:1039B00064E188EB9CE00E940D078093070C88234C
:1039C00099F20F2EF8EBEF2EFCE0FF2EF02D00E029
:1039D00010E0F70181917F010E944C078091080C53
:1039E000893609F400DD8091080C893618F48F5F60
:1039F0008093080C0F5F1F4F8091070C90E0081711
:103A0000190738F3C6010E94D212C6010E94291379
:103A1000ABCFDB018F939F9349D0BF91AF91A29F12
:103A2000800D911DA39F900DB29F900D11240895BC
:103A3000AA1BBB1B51E107C0AA1FBB1FA617B707D4
:103A400010F0A61BB70B881F991F5A95A9F78095F0
:103A50009095BC01CD010895A1E21A2EAA1BBB1BB3
:103A6000FD010DC0AA1FBB1FEE1FFF1FA217B3074A
:103A7000E407F50720F0A21BB30BE40BF50B661F60
:103A8000771F881F991F1A9469F760957095809524
:103A900090959B01AC01BD01CF010895EE0FFF1F72
:103AA000881F8BBF0790F691E02D199409D0A59F30
:103AB000900DB49F900DA49F800D911D1124089529
:103AC000A29FB001B39FC001A39F700D811D11245F
:103AD000911DB29F700D811D1124911D08958F922B
:103AE0009F92AF92BF92CF92DF92EF92FF92CF93CD
:103AF000DF93EC01688179818A819B816115710571
:103B00008105910521F464E279ED8BE597E02DE1E3
:103B100033EF41E050E0BBD449015A019B01AC01B5
:103B2000A7EAB1E4C3DF6B017C01ACEEB4EFA50101
:103B30009401CBD4DC01CB018C0D9D1DAE1DBF1DAE
:103B4000B7FF03C00197A109B04888839983AA836E
:103B5000BB839F77DF91CF91FF90EF90DF90CF9065
:103B6000BF90AF909F908F900895B9CF80E092E082
:103B7000B6CFA0E0B0E08093000290930102A09342
:103B80000202B09303020895FB01DC0102C0019020
:103B90000D9241505040D8F708950F931F93CF9343
:103BA000DF93009731F46115710519F480E090E01E
:103BB00039C08B01EC016EE070E081E090E075D2DD
:103BC000FC01892B99F380E883830115110571F0BD
:103BD0001387028781E883838091820D9091830D02
:103BE000892B21F4F093830DE093820D2097C9F087
:103BF000D187C0878381826083838091840D909177
:103C0000850D892B71F4F093850DE093840D8091DF
:103C1000860D9091870D892B21F4F093870DE09309
:103C2000860DCF01DF91CF911F910F910895CF9312
:103C3000DF93CDB7DEB7AE014A5F5F4FFA01619106
:103C40007191AF018091840D9091850D31D0DF91FC
:103C5000CF9108950F931F93CF93DF93CDB7DEB726
:103C60002E970FB6F894DEBF0FBECDBF0E891F8909
:103C700086E08C831A8309838FEF9FE79E838D8371
:103C8000AE01465E5F4F688D798DCE01019610D0F2
:103C9000EF81F885E00FF11F10822E960FB6F89491
:103CA000DEBF0FBECDBFDF91CF911F910F91089561
:103CB0002F923F924F925F926F927F928F929F923C
:103CC000AF92BF92CF92DF92EF92FF920F931F932A
:103CD000CF93DF93CDB7DEB72B970FB6F894DEBF47
:103CE0000FBECDBF6C017B018A01FC0117821682D9
:103CF000838181FFBFC1CE0101963C01F601938112
:103D0000F70193FD859193FF81917F01882309F449
:103D1000ADC1853239F493FD859193FF81917F0187
:103D2000853221F4B60190E018D3E8CF912C212CF4
:103D3000312CFFE1F315D8F08B3279F038F4803272
:103D400079F08332A1F4232D20611DC08D3261F002
:103D5000803369F4232D216016C0832D8260382EB4
:103D6000E32DE4603E2E2AC0F32DF8601DC037FC21
:103D70002DC020ED280F2A3040F08E32B9F436FCE9
:103D800075C1232D2064322E19C036FE06C08AE08C
:103D9000989E200D1124922E11C0EAE02E9E200D37
:103DA0001124222EF32DF0623F2E08C08C3621F410
:103DB000832D8068382E02C0883641F4F70193FDC8
:103DC000859193FF81917F018111B3CF982F9F7DC2
:103DD0009554933028F40C5F1F4F9FE399830DC0D7
:103DE000833631F0833771F0833509F055C020C038
:103DF000F801808189830E5F1F4F88248394912C62
:103E0000530112C02801F2E04F0E511CF801A080AE
:103E1000B18036FE03C0692D70E002C06FEF7FEF06
:103E2000C50190D24C018201F32DFF773F2E15C0C2
:103E3000280122E0420E511CF801A080B18036FE1C
:103E400003C0692D70E002C06FEF7FEFC50168D23B
:103E50004C01F32DF0683F2E820133FC19C0822DF6
:103E600090E088169906A0F4B60180E290E075D241
:103E70002A94F5CFF50137FC859137FE81915F01DA
:103E8000B60190E06AD221102A9421E0821A9108AA
:103E90008114910479F7E1C0843611F0893639F53F
:103EA000F80137FE07C060817181828193810C5FC8
:103EB0001F4F08C060817181072E000C880B990B81
:103EC0000E5F1F4FF32DFF763F2E97FF09C0909591
:103ED0008095709561957F4F8F4F9F4FF0683F2E73
:103EE0002AE030E0A30175D2882E861844C08537B9
:103EF00031F4232D2F7EB22E2AE030E025C0932D01
:103F0000997FB92E8F36C1F018F4883579F0AEC09C
:103F1000803719F0883721F0A9C0E92FE061BE2E63
:103F2000B4FE0DC0FB2DF460BF2E09C034FE0AC0E4
:103F3000292F2660B22E06C028E030E005C020E11F
:103F400030E002C020E132E0F801B7FE07C0608136
:103F50007181828193810C5F1F4F06C060817181E6
:103F600080E090E00E5F1F4FA30133D2882E8618A9
:103F7000FB2DFF773F2E36FE0DC0232D2E7FA22E68
:103F8000891458F434FE0BC032FC09C0832D8E7E98
:103F9000A82E05C0B82CA32C03C0B82C01C0B92C86
:103FA000A4FE0FC0FE01E80DF11D8081803321F4D5
:103FB0009A2D997EA92E09C0A2FE06C0B394B3948F
:103FC00004C08A2D867809F0B394A3FC10C0A0FE2B
:103FD00006C0B21480F4280C922C9B180DC0B214A9
:103FE00058F4B60180E290E0B8D1B394F8CFB2149F
:103FF00018F42B1802C0982C212CA4FE0FC0B60177
:1040000080E390E0AAD1A2FE16C0A1FC03C088E71D
:1040100090E002C088E590E0B6010CC08A2D867859
:1040200051F0A1FE02C08BE201C080E2A7FC8DE24C
:10403000B60190E092D1891430F4B60180E390E0AB
:104040008CD19A94F8CF8A94F301E80DF11D808108
:10405000B60190E082D18110F6CF222009F44ECE35
:10406000B60180E290E079D12A94F7CFF6018681FB
:10407000978102C08FEF9FEF2B960FB6F894DEBFAB
:104080000FBECDBFDF91CF911F910F91FF90EF90A9
:10409000DF90CF90BF90AF909F908F907F906F9068
:1040A0005F904F903F902F9008950F931F93CF9361
:1040B000DF93869F8001879F100D969F100D11241E
:1040C000C8010DD0EC01009721F0A80160E070E07C
:1040D00032D1CE01DF91CF911F910F9108950F93AF
:1040E0001F93CF93DF938230910510F482E090E02C
:1040F000E0918A0DF0918B0D20E030E0A0E0B0E07F
:10410000309719F140815181028113814817590775
:10411000C8F08417950769F4109731F012960C9344
:10412000129713961C9327C000938A0D10938B0D42
:1041300022C02115310519F04217530718F49A01CE
:10414000BD01EF01DF01F801DBCF21153105F9F0E9
:10415000281B390B2430310580F48A819B8161153D
:10416000710521F0FB019383828304C090938B0D32
:1041700080938A0DFE01329644C0FE01E20FF31FC8
:104180008193919322503109398328833AC0209139
:10419000880D3091890D232B41F420910602309136
:1041A00007023093890D2093880D209104023091ED
:1041B00005022115310541F42DB73EB740910802A3
:1041C00050910902241B350BE091880DF091890D67
:1041D000E217F307A0F42E1B3F0B2817390778F0DE
:1041E000AC014E5F5F4F2417350748F04E0F5F1F3D
:1041F0005093890D4093880D8193919302C0E0E024
:10420000F0E0CF01DF91CF911F910F910895CF93EF
:10421000DF93009709F481C0FC0132971382128268
:10422000A0918A0DB0918B0D109781F4208131817E
:10423000820F931F2091880D3091890D281739071F
:1042400051F5F093890DE093880D67C0ED0120E0F2
:1042500030E0CE17DF0740F44A815B819E014115B3
:104260005105F1F0EA01F5CFD383C283408151813A
:10427000840F951FC817D90759F488819981840F35
:10428000951F0296918380838A819B819383828389
:104290002115310529F4F0938B0DE0938A0D3DC073
:1042A000E901FB83EA8349915991C40FD51FEC17AB
:1042B000FD0761F480819181840F951F0296E901C9
:1042C00099838883828193819B838A83E0E0F0E0F5
:1042D00012968D919C911397009719F0FD01DC01C6
:1042E000F7CF8D919C9111979D012E5F3F4F820FCB
:1042F000931F2091880D3091890D2817390769F493
:10430000309729F410928B0D10928A0D02C01382FF
:104310001282B093890DA093880DDF91CF910895FB
:10432000FC010590615070400110D8F78095909580
:104330008E0F9F1F0895DC0101C06D9341505040C6
:10434000E0F70895FC016150704001900110D8F72A
:10435000809590958E0F9F1F08950F931F93CF9375
:10436000DF93FB01238121FD03C08FEF9FEF2CC062
:1043700022FF16C046815781248135814217530799
:1043800044F4A081B1819D012F5F3F4F3183208391
:104390008C93268137812F5F3F4F3783268314C04C
:1043A0008B01EC01FB010084F185E02D1995892B2F
:1043B000E1F6D80116968D919C9117970196179664
:1043C0009C938E931697CE01DF91CF911F910F9101
:1043D0000895FA01AA27283051F1203181F1E8949B
:1043E0006F936E7F6E5F7F4F8F4F9F4FAF4FB1E0E8
:1043F0003ED0B4E03CD0670F781F891F9A1FA11DE3
:10440000680F791F8A1F911DA11D6A0F711D811DE3
:10441000911DA11D20D009F468943F912AE0269FA8
:1044200011243019305D3193DEF6CF010895462F07
:104430004770405D4193B3E00FD0C9F7F6CF462FE8
:104440004F70405D4A3318F0495D31FD4052419351
:1044500002D0A9F7EACFB4E0A6959795879577950E
:104460006795BA95C9F700976105710508959B0195
:10447000AC010A2E06945795479537952795BA951E
:10448000C9F7620F731F841F951FA01D0895052E85
:1044900097FB16F400940FD057FD05D0DDDA07FC2A
:1044A00002D046F408C050954095309521953F4F75
:1044B0004F4F5F4F089590958095709561957F4F10
:1044C0008F4F9F4F0895B7FFF1CAF0DA821B930B0D
:0644D0000895F894FFCFEF
:1044D6000100000000008C0D200080250000030074
:1044E60001020A0D094D656E73616A6520656E7677
:1044F6006961646F2061202569000A0D093A3A2036
:104506004552524F52202D204C6120616C61726DD4
:1045160061207961206573746162612061637469E9
:1045260076616461203A3A00587C25692C25690039
:10453600547C25692C256900462020202020202037
:104546002020202020000A0D000A0D20203A3A20C3
:10455600456C2073696E6B202569206E6F2068613B
:1045660020656E766961646F2073752041434B2028
:104576002D2D205365207265656E76696120656C08
:104586002070617175657465203A3A000A0D202025
:10459600232320454C2053494E4B202569204E4F5E
:1045A60020484120454E564941444F20535520410D
:1045B600434B202D2D20434F4D554E4943414349F2
:1045C6004F4E2046414C4C494441202323000A0DBE
:1045D6003D3D3D3D3D3D3D3D3D3D3D3D3D3D3D3D05
:1045E6003D3D3D3D3D3D3D3D3D3D204D4F4E4954BC
:1045F6004F52495A4143494F4E204155544F4D4120
:1046060054494341203D3D3D3D3D3D3D3D3D3D3DC4
:104616003D3D3D3D3D3D3D3D3D3D3D3D3D3D3D0001
:104626000A0D093E3E204C612074656D706572610D
:1046360074757261206465206D69206E6F646F20E9
:1046460065733A2025692C2569000A0D09526563B0
:10465600696269646F2064653A20256900202876BE
:1046660069612042524F41444341535429004163FA
:10467600746976616369F36E206465206C612061FC
:104686006C61726D61000A0D093A3A204552524F2B
:1046960052202D20556E206E6F646F206861206950
:1046A6006E74656E7461646F20616374697661729D
:1046B600206C6120616C61726D61203A3A00417034
:1046C600616761646F206465206C6120616C617252
:1046D6006D61000A0D093A3A204552524F52202D7B
:1046E60020556E206E6F646F20686120696E746558
:1046F6006E7461646F206465736163746976617258
:10470600206C6120616C61726D61203A3A000A0D7D
:10471600093A3A204552524F52202D204C612061D1
:104726006C61726D612079612065737461626120CC
:104736006465736163746976616461203A3A005016
:104746006574696369F36E2064652074656D7065D0
:10475600726174757261000A0D093A3A2045525227
:104766004F52202D205065746963696F6E20646511
:104776002074656D706572617475726120706F72F8
:1047860020706172746520646520756E206E6F649A
:104796006F203A3A000A0D093A3A204C61207465B6
:1047A6006D70657261747572612064656C207365E5
:1047B6006E736F722065787465726E6F2064652003
:1047C6006D69206E6F646F2065733A2025692C250C
:1047D60069203A3A000A0A0D0920232320554D4242
:1047E60052414C2044452054454D50455241545564
:1047F600524120535550455241444F3A20534F4C55
:10480600494349545544204445204143544956415F
:104816004349D34E20444520414C41524D4120410D
:10482600435449564144412023230041434B2072BF
:104836006563696269646F000A0D093A3A20455258
:10484600524F52202D2041434B2070726F63656496
:10485600656E746520646520756E206E6F646F20CA
:104866003A3A004552524F523A20436F6D616E6498
:104876006F20646573636F6E6F6369646F0A0D3EC4
:084886003E200060050009005E
:00000001FF
